{
  "transactions": [
    {
      "hash": "0xbcb9d0de24e5b17b77ce376aa284bcadadaed8e3b997b572bb910e00ba1b5d36",
      "transactionType": "CALL",
      "contractName": null,
      "contractAddress": "0x779877a7b0d9e8603169ddbd7836e478b4624789",
      "function": "transferAndCall(address,uint256,bytes)",
      "arguments": [
        "0x9DdfaCa8183c41ad55329BdeeD9F6A8d53168B1B",
        "3000000000000000000",
        "0x480efa7af7329a7d2788bf7c356a31feb7e76e4235cdd031b8cee4cbf02a8ff1"
      ],
      "transaction": {
        "from": "0x4b9d304bdf400de4644c12af3b3d4f287bee9130",
        "to": "0x779877a7b0d9e8603169ddbd7836e478b4624789",
        "gas": "0x14cbb",
        "value": "0x0",
        "input": "0x4000aea00000000000000000000000009ddfaca8183c41ad55329bdeed9f6a8d53168b1b00000000000000000000000000000000000000000000000029a2241af62c000000000000000000000000000000000000000000000000000000000000000000600000000000000000000000000000000000000000000000000000000000000020480efa7af7329a7d2788bf7c356a31feb7e76e4235cdd031b8cee4cbf02a8ff1",
        "nonce": "0x60",
        "chainId": "0xaa36a7"
      },
      "additionalContracts": [],
      "isFixedGasLimit": false
    }
  ],
  "receipts": [
    {
      "status": "0x1",
      "cumulativeGasUsed": "0x9af9b9",
      "logs": [
        {
          "address": "0x779877a7b0d9e8603169ddbd7836e478b4624789",
          "topics": [
            "0xddf252ad1be2c89b69c2b068fc378daa952ba7f163c4a11628f55a4df523b3ef",
            "0x0000000000000000000000004b9d304bdf400de4644c12af3b3d4f287bee9130",
            "0x0000000000000000000000009ddfaca8183c41ad55329bdeed9f6a8d53168b1b"
          ],
          "data": "0x00000000000000000000000000000000000000000000000029a2241af62c0000",
          "blockHash": "0x1c639f712ef38ce00ea630f4eb64225ec3d0ddaf1e7bd954ec1f28ce0b12a7b5",
          "blockNumber": "0x6b2b30",
          "transactionHash": "0xbcb9d0de24e5b17b77ce376aa284bcadadaed8e3b997b572bb910e00ba1b5d36",
          "transactionIndex": "0x3c",
          "logIndex": "0x66",
          "removed": false
        },
        {
          "address": "0x779877a7b0d9e8603169ddbd7836e478b4624789",
          "topics": [
            "0xe19260aff97b920c7df27010903aeb9c8d2be5d310a2c67824cf3f15396e4c16",
            "0x0000000000000000000000004b9d304bdf400de4644c12af3b3d4f287bee9130",
            "0x0000000000000000000000009ddfaca8183c41ad55329bdeed9f6a8d53168b1b"
          ],
          "data": "0x00000000000000000000000000000000000000000000000029a2241af62c000000000000000000000000000000000000000000000000000000000000000000400000000000000000000000000000000000000000000000000000000000000020480efa7af7329a7d2788bf7c356a31feb7e76e4235cdd031b8cee4cbf02a8ff1",
          "blockHash": "0x1c639f712ef38ce00ea630f4eb64225ec3d0ddaf1e7bd954ec1f28ce0b12a7b5",
          "blockNumber": "0x6b2b30",
          "transactionHash": "0xbcb9d0de24e5b17b77ce376aa284bcadadaed8e3b997b572bb910e00ba1b5d36",
          "transactionIndex": "0x3c",
          "logIndex": "0x67",
          "removed": false
        },
        {
          "address": "0x9ddfaca8183c41ad55329bdeed9f6a8d53168b1b",
          "topics": [
            "0x1ced9348ff549fceab2ac57cd3a9de38edaaab274b725ee82c23e8fc8c4eec7a",
            "0x480efa7af7329a7d2788bf7c356a31feb7e76e4235cdd031b8cee4cbf02a8ff1"
          ],
          "data": "0x00000000000000000000000000000000000000000000000029a2241af62c000000000000000000000000000000000000000000000000000053444835ec580000",
          "blockHash": "0x1c639f712ef38ce00ea630f4eb64225ec3d0ddaf1e7bd954ec1f28ce0b12a7b5",
          "blockNumber": "0x6b2b30",
          "transactionHash": "0xbcb9d0de24e5b17b77ce376aa284bcadadaed8e3b997b572bb910e00ba1b5d36",
          "transactionIndex": "0x3c",
          "logIndex": "0x68",
          "removed": false
        }
      ],
      "logsBloom": "0x00000004000000000000000000000000000000000020000000000000020000000000000000000000000000000000000000000000000000000000000000000000010000000000000000000008000000000004000000000000000020000060000008000000000000000000000000000000000040000000000000000010000040000000000000000000000000010000820000000020000000000000000000000000000000000000000000000000010000000000000000000000000004000000000000000002000000100000000000000000000000000000000100000000000000000010000000000000800000000000000000000000000000000000000000000000",
      "type": "0x2",
      "transactionHash": "0xbcb9d0de24e5b17b77ce376aa284bcadadaed8e3b997b572bb910e00ba1b5d36",
      "transactionIndex": "0x3c",
      "blockHash": "0x1c639f712ef38ce00ea630f4eb64225ec3d0ddaf1e7bd954ec1f28ce0b12a7b5",
      "blockNumber": "0x6b2b30",
      "gasUsed": "0xf0e5",
      "effectiveGasPrice": "0x2f6deb947",
      "from": "0x4b9d304bdf400de4644c12af3b3d4f287bee9130",
      "to": "0x779877a7b0d9e8603169ddbd7836e478b4624789",
      "contractAddress": null
    }
  ],
  "libraries": [],
  "pending": [],
  "returns": {},
  "timestamp": 1730895005,
  "chain": 11155111,
  "commit": "2087f34"
}