{
  "transactions": [
    {
      "hash": "0xbc6e8559529df5fc7cbaebbf8fa3075b9a8812ab5794dc8bf39480bade8ac564",
      "transactionType": "CALL",
      "contractName": null,
      "contractAddress": "0x779877a7b0d9e8603169ddbd7836e478b4624789",
      "function": "transferAndCall(address,uint256,bytes)",
      "arguments": [
        "0x9DdfaCa8183c41ad55329BdeeD9F6A8d53168B1B",
        "3000000000000000000",
        "0x480efa7af7329a7d2788bf7c356a31feb7e76e4235cdd031b8cee4cbf02a8ff1"
      ],
      "transaction": {
        "from": "0x4b9d304bdf400de4644c12af3b3d4f287bee9130",
        "to": "0x779877a7b0d9e8603169ddbd7836e478b4624789",
        "gas": "0x1c1ff",
        "value": "0x0",
        "input": "0x4000aea00000000000000000000000009ddfaca8183c41ad55329bdeed9f6a8d53168b1b00000000000000000000000000000000000000000000000029a2241af62c000000000000000000000000000000000000000000000000000000000000000000600000000000000000000000000000000000000000000000000000000000000020480efa7af7329a7d2788bf7c356a31feb7e76e4235cdd031b8cee4cbf02a8ff1",
        "nonce": "0x5f",
        "chainId": "0xaa36a7"
      },
      "additionalContracts": [],
      "isFixedGasLimit": false
    }
  ],
  "receipts": [
    {
      "status": "0x1",
      "cumulativeGasUsed": "0x5bea87",
      "logs": [
        {
          "address": "0x779877a7b0d9e8603169ddbd7836e478b4624789",
          "topics": [
            "0xddf252ad1be2c89b69c2b068fc378daa952ba7f163c4a11628f55a4df523b3ef",
            "0x0000000000000000000000004b9d304bdf400de4644c12af3b3d4f287bee9130",
            "0x0000000000000000000000009ddfaca8183c41ad55329bdeed9f6a8d53168b1b"
          ],
          "data": "0x00000000000000000000000000000000000000000000000029a2241af62c0000",
          "blockHash": "0x5869bc0e3a581d62bb658f0709572c51f99ce2c4f6cc632bae92938aa70344f2",
          "blockNumber": "0x6b2624",
          "transactionHash": "0xbc6e8559529df5fc7cbaebbf8fa3075b9a8812ab5794dc8bf39480bade8ac564",
          "transactionIndex": "0x2b",
          "logIndex": "0x31",
          "removed": false
        },
        {
          "address": "0x779877a7b0d9e8603169ddbd7836e478b4624789",
          "topics": [
            "0xe19260aff97b920c7df27010903aeb9c8d2be5d310a2c67824cf3f15396e4c16",
            "0x0000000000000000000000004b9d304bdf400de4644c12af3b3d4f287bee9130",
            "0x0000000000000000000000009ddfaca8183c41ad55329bdeed9f6a8d53168b1b"
          ],
          "data": "0x00000000000000000000000000000000000000000000000029a2241af62c000000000000000000000000000000000000000000000000000000000000000000400000000000000000000000000000000000000000000000000000000000000020480efa7af7329a7d2788bf7c356a31feb7e76e4235cdd031b8cee4cbf02a8ff1",
          "blockHash": "0x5869bc0e3a581d62bb658f0709572c51f99ce2c4f6cc632bae92938aa70344f2",
          "blockNumber": "0x6b2624",
          "transactionHash": "0xbc6e8559529df5fc7cbaebbf8fa3075b9a8812ab5794dc8bf39480bade8ac564",
          "transactionIndex": "0x2b",
          "logIndex": "0x32",
          "removed": false
        },
        {
          "address": "0x9ddfaca8183c41ad55329bdeed9f6a8d53168b1b",
          "topics": [
            "0x1ced9348ff549fceab2ac57cd3a9de38edaaab274b725ee82c23e8fc8c4eec7a",
            "0x480efa7af7329a7d2788bf7c356a31feb7e76e4235cdd031b8cee4cbf02a8ff1"
          ],
          "data": "0x000000000000000000000000000000000000000000000000000000000000000000000000000000000000000000000000000000000000000029a2241af62c0000",
          "blockHash": "0x5869bc0e3a581d62bb658f0709572c51f99ce2c4f6cc632bae92938aa70344f2",
          "blockNumber": "0x6b2624",
          "transactionHash": "0xbc6e8559529df5fc7cbaebbf8fa3075b9a8812ab5794dc8bf39480bade8ac564",
          "transactionIndex": "0x2b",
          "logIndex": "0x33",
          "removed": false
        }
      ],
      "logsBloom": "0x00000004000000000000000000000000000000000020000000000000020000000000000000000000000000000000000000000000000000000000000000000000010000000000000000000008000000000004000000000000000020000060000008000000000000000000000000000000000040000000000000000010000040000000000000000000000000010000820000000020000000000000000000000000000000000000000000000000010000000000000000000000000004000000000000000002000000100000000000000000000000000000000100000000000000000010000000000000800000000000000000000000000000000000000000000000",
      "type": "0x2",
      "transactionHash": "0xbc6e8559529df5fc7cbaebbf8fa3075b9a8812ab5794dc8bf39480bade8ac564",
      "transactionIndex": "0x2b",
      "blockHash": "0x5869bc0e3a581d62bb658f0709572c51f99ce2c4f6cc632bae92938aa70344f2",
      "blockNumber": "0x6b2624",
      "gasUsed": "0x133b1",
      "effectiveGasPrice": "0x327a30368",
      "from": "0x4b9d304bdf400de4644c12af3b3d4f287bee9130",
      "to": "0x779877a7b0d9e8603169ddbd7836e478b4624789",
      "contractAddress": null
    }
  ],
  "libraries": [],
  "pending": [],
  "returns": {},
  "timestamp": 1730878168,
  "chain": 11155111,
  "commit": "2087f34"
}